S00C00006C6162342E73726563B5
S11300000C9456000C946B000C946B000C946B00D5
S11300100C946B000C946B000C946B000C946B00B0
S11300200C946B000C946B000C946B000C946B00A0
S11300300C946B000C946B000C946B000C946B0090
S11300400C946B000C946B000C946B000C946B0080
S11300500C946B000C946B000C946B000C946B0070
S11300600C946B000C946B000C946B000C946B0060
S11300700C946B000C946B000C946B000C946B0050
S11300800C946B000C946B000C946B000C946B0040
S11300900C946B000C946B000C946B000C946B0030
S11300A00C946B000C946B000C946B0011241FBE19
S11300B0CFEFDAE0DEBFCDBF11E0A0E0B1E0E0E4D5
S11300C0FDE002C005900D92A03CB107D9F70E9453
S11300D0F7010C949E060C9400008AEF1ED08AEF60
S11300E01CD08AEF1AD08AEF18D0089500000000BF
S11300F0000000000000000008950000000000005F
S113010000000000000000000000000000000000EB
S113011000008A95803089F70895282F8AEFEDDF53
S11301208AEFEBDF8AEFE9DF8AEFE7DF2A952030F9
S1130130A9F70895EF92FF920F931F93CF93DF9344
S1130140CDB7DEB761970FB6F894DEBF0FBECDBF53
S11301507C0143E064E071E080E191E00E94AC0145
S113016000E010E0BE016F5F7F4F8EE191E00E94DE
S11301702901882371F089819A819C0121503109D8
S11301802436310530F40F5F1F4FE816F90669F580
S113019008C041E06CE271E08BE391E00E94AC01A5
S11301A0E1CF41E06AE371E08AE491E00E94AC01AE
S11301B01F930F938AE591E09F938F93CE0101964D
S11301C07C019F938F930E94920343E06AE371E062
S11301D0C7010E94AC010F900F900F900F900F90E9
S11301E00F9008301105E0F413C08E159F0540F4FC
S11301F041E06AE371E086E691E00E94AC01B2CF8F
S113020041E06AE371E08FE691E00E94AC01AACF7D
S113021043E06AE371E089E791E00E94AC0107C022
S113022043E063E871E080E991E00E94AC016196EB
S11302300FB6F894DEBF0FBECDBFDF91CF911F91F3
S11302400F91FF90EF9008950E94CD010E94360215
S11302500895EF92FF920F931F93CF93DF9300D0F3
S113026000D0CDB7DEB78C017B010E942802C80103
S11302700E946E0282E00E94300260E081E00E94EF
S1130280640200E00E94D101182F8823D9F383323D
S113029029F18A3281F40023E1F0015060E180E029
S11302A00E94140260E281E00E94140260E180E096
S11302B00E9414020EC0033060F4682F81E00E9493
S11302C01402E1E0F0E0EC0FFD1FE00FF11D1083DC
S11302D00F5F0E94D1018111FCCFD4CFFE01E00F4A
S11302E0F11D1182002361F12FEF200FFE01E20FB7
S11302F0F11D4181405350E02223F9F08AE090E05F
S11303002150E1E0F0E0EC0FFD1FE20FF11D308120
S11303103053389FB001399F700D1124460F571F79
S1130320BC01660F771F880F991F880F991F880FCC
S1130330991F860F971F2111E3CFF7015183408343
S1130340802F0F900F900F900F90DF91CF911F91FE
S11303500F91FF90EF900895EF92FF920F931F93E8
S1130360CF937C018B01C42F80E00E9430020E9455
S11303702802C7010E946E0260E081E00E946402CC
S1130380C8010E946E028C2F90E00E946D00CF91F4
S11303901F910F91FF90EF9008951DB880EF84B9DD
S11303A008950F931F93CF93DF93C0E0D0E085B1FE
S11303B0282F2F70CE0182959295907F9827807F69
S11303C09827822B85B981E00E948D00669B05C029
S11303D0FE01E456FE4F808105C02196CC30D10544
S11303E031F780E0DF91CF911F910F9108950E9422
S11303F024010E947F0243E068EA71E086EB91E009
S11304000E94AC0184E690E00E949C0201960E9446
S11304109A00F8CF91B39F70807F892B81BB5F9A3C
S11304200E9476005F980895CF93C62F811102C071
S11304305E9801C05E9A8C2F0E940A028C2F8295CE
S1130440807F0E940A028DE20E947D00CF91089570
S113045061E080E00E94140282E00E948D00089511
S1130460682F6C6080E00E941402089580EF80BBC6
S113047080EC8AB984E10E948D005E9880E30E943A
S11304800A028AE00E948D0080E30E940A028AE048
S11304900E948D0080E30E940A028AE00E948D007F
S11304A080E20E940A028DE20E947D0068E280E000
S11304B00E94140280E00E9430020E94280266E03A
S11304C080E00E941402089520E4829FC001112458
S11304D06068682B80E00E9414020895CF93DF9334
S11304E0FC016081662341F0EC01219681E00E94C9
S11304F0140269916111FACFDF91CF91089580E4DC
S113050080937C00EAE7F0E087E0808380E88083E2
S113051081E080937E00808180648083808184FF79
S1130520FDCF809179006091780070E0782B80E0B5
S113053090E00E9489030895CF93DF93009751F0D0
S1130540EC010E943B039E0140E050E00E94AF0298
S1130550CB0102C080E090E0DF91CF910895052E99
S113056097FB1EF400940E94C60257FD07D00E9418
S1130570CE0207FC03D04EF40C94C602509540956D
S1130580309521953F4F4F4F5F4F0895909580953B
S1130590709561957F4F8F4F9F4F0895A1E21A2E5A
S11305A0AA1BBB1BFD010DC0AA1FBB1FEE1FFF1F13
S11305B0A217B307E407F50720F0A21BB30BE40B63
S11305C0F50B661F771F881F991F1A9469F76095AA
S11305D07095809590959B01AC01BD01CF01089564
S11305E08F929F92AF92BF92CF92DF92EF92FF923F
S11305F0CF93DF93EC01688179818A819B816115B6
S113060071058105910521F464E279ED8BE597E0AC
S11306102DE133EF41E050E00E94AF0249015A015D
S11306209B01AC01A7EAB1E40E9445066B017C0181
S1130630ACEEB4EFA50194010E945306DC01CB019A
S11306408C0D9D1DAE1DBF1DB7FF03C00197A109F1
S1130650B04888839983AA83BB83BC01CD019F776B
S1130660DF91CF91FF90EF90DF90CF90BF90AF904C
S11306709F908F9008958F929F92AF92BF92CF9246
S1130680DF92EF92FF9260910001709101018091DD
S1130690020190910301611571058105910521F411
S11306A064E279ED8BE597E02DE133EF41E050E032
S11306B00E94AF0249015A019B01AC01A7EAB1E4CF
S11306C00E9445066B017C01ACEEB4EFA5019401D8
S11306D00E945306DC01CB018C0D9D1DAE1DBF1D78
S11306E0B7FF03C00197A109B0488093000190931C
S11306F00101A0930201B0930301BC01CD019F77D6
S1130700FF90EF90DF90CF90BF90AF909F908F902D
S11307100895609300017093010180930201909306
S113072003010895AEE0B0E0E8E9F3E00C94660656
S11307300D891E8986E08C831A8309838FEF9FE7D6
S11307409E838D83AE01475E5F4F6F89788DCE01A6
S113075001960E94B403EF81F885E00FF11F108227
S11307602E96E4E00C948206ABE0B0E0EAEBF3E012
S11307700C9458066C017B018A01FC0117821682D5
S1130780838181FFCCC1CE0101963C01F6019381A6
S1130790F70193FD859193FF81917F01882309F4EB
S11307A0BAC1853239F493FD859193FF81917F011C
S11307B0853229F4B60190E00E94AB05E7CF912C75
S11307C0212C312CFFE1F315D8F08B3279F038F479
S11307D0803279F08332A1F4232D20611DC08D3243
S11307E061F0803369F4232D216016C0832D82606B
S11307F0382EE32DE4603E2E2AC0F32DF8601DC090
S113080037FC2DC020ED280F2A3040F08E32B9F489
S113081036FC81C1232D2064322E19C036FE06C059
S11308208AE0989E200D1124922E11C0EAE02E9E9B
S1130830200D1124222EF32DF0623F2E08C08C3699
S113084021F4832D8068382E02C0883641F4F701E4
S113085093FD859193FF81917F018111B3CF982FEF
S11308609F7D9554933028F40C5F1F4F9FE3998329
S11308700DC0833631F0833771F0833509F059C0E8
S113088021C0F801808189830E5F1F4F88248394DF
S1130890912C530113C02801F2E04F0E511CF801B2
S11308A0A080B18036FE03C0692D70E002C06FEFF6
S11308B07FEFC5010E94A0054C018201F32DFF7753
S11308C03F2E16C0280122E0420E511CF801A080E0
S11308D0B18036FE03C0692D70E002C06FEF7FEF78
S11308E0C5010E9495054C01F32DF0683F2E82014D
S11308F033FC1BC0822D90E088169906B0F4B60133
S113090080E290E00E94AB052A94F4CFF50137FC15
S1130910859137FE81915F01B60190E00E94AB059D
S113092021102A9421E0821A91088114910471F70C
S1130930E8C0843611F0893641F5F80137FE07C066
S113094060817181828193810C5F1F4F08C0608137
S11309507181072E000C880B990B0E5F1F4FF32D2E
S1130960FF763F2E97FF09C090958095709561950D
S11309707F4F8F4F9F4FF0683F2E2AE030E0A30156
S11309800E94E705882E861845C0853731F4232D4B
S11309902F7EB22E2AE030E025C0932D997FB92E08
S11309A08F36C1F018F4883579F0B5C0803719F066
S11309B0883721F0B0C0E92FE061BE2EB4FE0DC02F
S11309C0FB2DF460BF2E09C034FE0AC0292F266017
S11309D0B22E06C028E030E005C020E130E002C0BD
S11309E020E132E0F801B7FE07C0608171818281A5
S11309F093810C5F1F4F06C06081718180E090E09D
S1130A000E5F1F4FA3010E94E705882E8618FB2D59
S1130A10FF773F2E36FE0DC0232D2E7FA22E891484
S1130A2058F434FE0BC032FC09C0832D8E7EA82EF0
S1130A3005C0B82CA32C03C0B82C01C0B92CA4FE4B
S1130A400FC0FE01E80DF11D8081803321F49A2D41
S1130A50997EA92E09C0A2FE06C0B394B39404C023
S1130A608A2D867809F0B394A3FC11C0A0FE06C0B9
S1130A70B21488F4280C922C9B180EC0B21460F4A3
S1130A80B60180E290E00E94AB05B394F7CFB214B4
S1130A9018F42B1802C0982C212CA4FE10C0B60107
S1130AA080E390E00E94AB05A2FE17C0A1FC03C046
S1130AB088E790E002C088E590E0B6010CC08A2D7A
S1130AC0867859F0A1FE02C08BE201C080E2A7FC47
S1130AD08DE2B60190E00E94AB05891438F4B601AA
S1130AE080E390E00E94AB059A94F7CF8A94F301D7
S1130AF0E80DF11D8081B60190E00E94AB058110E4
S1130B00F5CF222009F442CEB60180E290E00E94A3
S1130B10AB052A94F6CFF6018681978102C08FEF48
S1130B209FEF2B96E2E10C947406FC010590615052
S1130B3070400110D8F7809590958E0F9F1F0895EF
S1130B40FC016150704001900110D8F78095909598
S1130B508E0F9F1F08950F931F93CF93DF93FB0175
S1130B60238121FD03C08FEF9FEF2CC022FF16C00D
S1130B7046815781248135814217530744F4A0816B
S1130B80B1819D012F5F3F4F318320838C93268158
S1130B9037812F5F3F4F3783268314C08B01EC01CD
S1130BA0FB010084F185E02D0995892BE1F6D8013C
S1130BB016968D919C911797019617969C938E93F8
S1130BC01697CE01DF91CF911F910F910895FA01ED
S1130BD0AA27283051F1203181F1E8946F936E7F78
S1130BE06E5F7F4F8F4F9F4FAF4FB1E03ED0B4E069
S1130BF03CD0670F781F891F9A1FA11D680F791FAA
S1130C008A1F911DA11D6A0F711D811D911DA11DBA
S1130C1020D009F468943F912AE0269F11243019CA
S1130C20305D3193DEF6CF010895462F4770405D65
S1130C304193B3E00FD0C9F7F6CF462F4F70405D14
S1130C404A3318F0495D31FD4052419302D0A9F76F
S1130C50EACFB4E0A6959795879577956795BA9569
S1130C60C9F700976105710508959B01AC010A2E2F
S1130C7006945795479537952795BA95C9F7620F06
S1130C80731F841F951FA01D08950E948F06A59FA2
S1130C90900DB49F900DA49F800D911D1124089573
S1130CA0B7FF0C9445060E944506821B930B0895DA
S1130CB02F923F924F925F926F927F928F929F9268
S1130CC0AF92BF92CF92DF92EF92FF920F931F9356
S1130CD0CF93DF93CDB7DEB7CA1BDB0B0FB6F89407
S1130CE0DEBF0FBECDBF09942A88398848885F8447
S1130CF06E847D848C849B84AA84B984C884DF80B8
S1130D00EE80FD800C811B81AA81B981CE0FD11D9B
S1130D100FB6F894DEBF0FBECDBFED010895A29FBC
S1130D20B001B39FC001A39F700D811D1124911DBB
S1130D30B29F700D811D1124911D0895F894FFCF69
S1130D4001000000746865206E756D6265723F0075
S1130D5043616E20796F7520677565737300456E06
S1130D60746572206E756D6265723A00626574779F
S1130D7065656E20312D3130302100456E74657209
S1130D802061206E756D62657200436F72726563D7
S1130D9074206E756D6265722100477565737365A5
S1130DA0733A20257500546F6F206C6F77210054BF
S1130DB06F6F20686967682100476F6F64206A6FEE
S1130DC06221006E6578742074696D652E2E2E0084
S1130DD0426574746572206C75636B003134372A14
S1130DE032353830333639234C6574277320706CB0
S1130DF061792E2E2E0057656C636F6D652100009E
S9030000FC
