:020000020000FC
:02000000ADC091
:1000AC000000000000000000000000000000000044
:1000BC000000000000000000089500000000000097
:1000CC000000000000000000000000008A95803055
:1000DC00A1F70895282F8AEFF0DF8AEFEEDF8AEF81
:1000EC00ECDF8AEFEADF2A952030A9F7089581BB6F
:1000FC005F9AD6DF5F9808955E98F9DF8295F7DFF7
:10010C008DE2DBDF08955E9AF2DF8295F0DF8DE2FF
:10011C00D4DF089584E1DEDF5E9880E3E8DF8AE0D7
:10012C00D9DF80E3E4DF8AE0D5DF80E3E0DF8AE03B
:10013C00D1DF80E2DCDF8DE2C0DF88E2DDDF8FE043
:10014C00DBDF81E0D9DF82E0C5DF86E0D5DF089513
:10015C000FEF0DBF0AE00EBF0E94B7000E94900087
:10016C0007C00FEF00BB04B90AB900E00DB9089540
:10017C008BE4C9DF85E4C7DF89E5C5DF8AE3C3DF2C
:10018C0080ECBADF87E299DF1FE010D08F30E1F30B
:10019C008117D9F3182F8A3010F007E0800F00E395
:1001AC00800F882FB0DF8AEF95DFEFCF20E0322F62
:1001BC00330F330F330F330F35B92F9384E18ADFAD
:1001CC002F91669904C023952C3089F72FE0822F4C
:0201DC00089584
:00000001FF
