:020000020000FC
:02000000B0C08E
:1000AC000000000000000000000000000000000044
:1000BC00000000000000000008958A958030E9F7E8
:1000CC000000000000000000000000000000000024
:1000DC0000000000000000000895282F8AEFEDDFDB
:1000EC008AEFEBDF8AEFE9DF8AEFE7DF2A95203032
:1000FC00A9F7089581BB5F9AD3DF5F9808955E9846
:10010C00F9DF8295F7DF8DE2D8DF08955E9AF2DF92
:10011C008295F0DF8DE2D1DF089584E1DEDF5E9819
:10012C0080E3E8DF8AE0D9DF80E3E4DF8AE0D5DF33
:10013C0080E3E0DF8AE0D1DF80E2DCDF8DE2BDDF4F
:10014C0088E2DDDF8FE0DBDF81E0D9DF82E0C5DF35
:10015C0086E0D5DF08950FEF0DBF0AE00EBF0E94B9
:10016C00B8000AC000E807B900EF00BB01BB05B935
:10017C0004B95E9A5F9A089588E4C8DF85E4C6DF07
:10018C008CE4C4DF8CE4C2DF8FE4C0DF81E2BEDF2D
:10019C00FFCF0E94D900880F880F880F880F81BB72
:1001AC0000000000E9CF20E0322F330F330F330F64
:1001BC00330F35B900000000000000000000000003
:1001CC00000000000000000000000000669904C060
:0C01DC0023952C3049F72FE0822F089566
:00000001FF
